:100000000C9463000C948B000C948B000C94FD03F7
:100010000C94FD030C94FD030C948B000C948B004A
:100020000C948B000C948B000C948B000C948B0024
:100030000C948B000C948B000C948B000C948B0014
:100040000C94B3030C948B000C9481030C945B030D
:100050000C948B000C948B000C948B000C948B00F4
:100060000C948B000C948B000000000024002700EF
:100070002A0000000008000201000003040700003D
:1000800000000000000000000000250028002B00F8
:1000900000000000230026002900040404040404D6
:1000A0000404020202020202030303030303010227
:1000B00004081020408001020408102001020408F6
:1000C000102077040A0711241FBECFEFD8E0DEBF4F
:1000D000CDBF11E0A0E0B1E0E8EAFEE002C005908B
:1000E0000D92A435B107D9F722E0A4E5B1E001C033
:1000F0001D92A536B207E1F710E0C2E6D0E004C0D9
:100100002197FE010E943C07C136D107C9F70E9422
:1001100022050C9447070C940000CF92DF92EF92D7
:10012000FF920F931F93CF93DF936C017A018B01A2
:10013000C0E0D0E0CE15DF0589F0D8016D918D01CA
:10014000D601ED91FC910190F081E02DC601099559
:10015000892B11F47E0102C02196ECCFC701DF91FB
:10016000CF911F910F91FF90EF90DF90CF90089566
:10017000FC01918D828D981761F0828DDF01A80FAF
:10018000B11D5D968C91928D9F5F9F73928F90E0D1
:1001900008958FEF9FEF0895FC01918D828D981740
:1001A00031F0828DE80FF11D858D90E008958FEF7D
:1001B0009FEF0895FC01918D228D892F90E0805C46
:1001C0009F4F821B91098F739927089589EA91E0C7
:1001D0000E94DA0021E0892B09F420E0822F0895A3
:1001E000FC01848DDF01A80FB11DA35ABF4F2C91D4
:1001F000848D90E001968F739927848FA689B789A3
:100200002C93A089B1898C9180648C93938D848D7B
:10021000981306C00288F389E02D80818F7D80834A
:100220000895EF92FF920F931F93CF93DF93EC010A
:1002300081E0888F9B8D8C8D981305C0E889F989A2
:10024000808185FD24C0F62E0B8D10E00F5F1F4FBF
:100250000F731127E02E8C8DE8120CC00FB607FC2F
:10026000FACFE889F989808185FFF5CFCE010E9418
:10027000F000F1CF8B8DFE01E80FF11DE35AFF4F27
:10028000F0820B8FEA89FB898081806207C0EE894A
:10029000FF896083E889F98980818064808381E0B7
:1002A00090E0DF91CF911F910F91FF90EF90089513
:1002B000CF93DF93EC01888D8823C9F0EA89FB890D
:1002C000808185FD05C0A889B9898C9186FD0FC004
:1002D0000FB607FCF5CF808185FFF2CFA889B989D9
:1002E0008C9185FFEDCFCE010E94F000E7CFDF912A
:1002F000CF91089580E090E0892B29F00E94E600DC
:1003000081110C940000089590E0FC01EE58FF4F1D
:100310003491FC01E255FF4F2491FC01E656FF4F5A
:10032000E491EE2309F43BC0332339F1333091F0EB
:1003300038F43130A9F0323001F584B58F7D12C028
:10034000373091F03830A1F03430B9F4809180002A
:100350008F7D03C0809180008F77809380000DC0D7
:1003600084B58F7784BD09C08091B0008F7703C0BA
:100370008091B0008F7D8093B000F0E0EE0FFF1F02
:10038000EA57FF4FA591B4918FB7F894EC916111A2
:1003900003C020952E2301C02E2B2C938FBF0895D0
:1003A000CF93DF9390E0FC01E255FF4F2491FC01D5
:1003B000E656FF4F8491882361F190E0880F991FE2
:1003C000FC01E859FF4FC591D491FC01EA57FF4F5A
:1003D000A591B491611109C09FB7F89488812095C7
:1003E00082238883EC912E230BC0623061F49FB787
:1003F000F8943881822F809583238883EC912E2B6B
:100400002C939FBF06C08FB7F894E8812E2B2883CA
:100410008FBFDF91CF9108953FB7F89480919901F4
:1004200090919A01A0919B01B0919C0126B5A89B47
:1004300005C02F3F19F00196A11DB11D3FBFBA2F76
:10044000A92F982F8827820F911DA11DB11DBC01D6
:10045000CD0142E0660F771F881F991F4A95D1F79B
:1004600008958F929F92AF92BF92CF92DF92EF92B8
:10047000FF926B017C010E940C024B015C01C114D4
:10048000D104E104F104F1F00E940C02DC01CB0183
:1004900088199909AA09BB09883E9340A105B105AD
:1004A00070F321E0C21AD108E108F10888EE880E45
:1004B00083E0981EA11CB11CC114D104E104F10415
:1004C00019F7DDCFFF90EF90DF90CF90BF90AF9006
:1004D0009F908F90089520919F013091A00128173F
:1004E000390771F490919D0180919E01981741F018
:1004F000E0919D01F0E0EC5AFE4F808190E008957C
:100500008FEF9FEF089508951F93CF93DF93DC0142
:100510005C962D913C915D972115310539F481E070
:1005200090E013969C938E9312973DC05196ED9157
:10053000FC91529750969C915097892F80951FB7A8
:100540005E964C915E9741FB772770F941FD60956F
:10055000F8944081772311F0492B01C04823408350
:10056000E9012197F1F748E0508160FF02C0592B63
:1005700001C058235083E9012197F1F76695415056
:1005800099F7772321F090818923808303C08081AC
:10059000982B90831FBF5C968D919C915D970197DE
:1005A000F1F721E030E0C901DF91CF911F9108956B
:1005B00020919F013091A0012817390771F4809193
:1005C0009E0120919D0190E0805C9F4F821B9109CC
:1005D00060E470E00E941407089580E090E00895C0
:1005E00020919F013091A00128173907B9F490910B
:1005F0009D0180919E01981789F0E0919D01F0E0A6
:10060000EC5AFE4F808120919D0130E02F5F3F4FDB
:100610002F73332720939D0190E008958FEF9FEF74
:100620000895E0919F01F091A001E817F90769F49E
:10063000A389B4899C918589809589238C93109294
:10064000A00110929F0181E0089580E0089560E08C
:1006500082E00E94840160E084E00E94840160E006
:1006600083E00E94840160E085E00C948401CF93D4
:10067000DF93009779F0FC0101900020E9F73197B2
:10068000AF01481B590BBC0189EA91E00E948D0023
:10069000EC0102C0C0E0D0E042E050E068E271E06E
:1006A00089EA91E00E948D008C0F9D1FDF91CF9110
:1006B00008950E9442071F920F920FB60F921124C5
:1006C0002F933F934F935F936F937F938F939F935A
:1006D000AF93BF93EF93FF9389EA91E00E94F000FC
:1006E000FF91EF91BF91AF919F918F917F916F910A
:1006F0005F914F913F912F910F900FBE0F901F90E0
:1007000018951F920F920FB60F9211242F938F936B
:100710009F93EF93FF93E091B901F091BA0180812B
:10072000E091BF01F091C00182FD12C090818091E3
:10073000C2018F5F8F732091C301821751F0E09146
:10074000C201F0E0E755FE4F958F8093C20101C0D2
:100750008081FF91EF919F918F912F910F900FBE0C
:100760000F901F9018951F920F920FB60F921124A1
:100770002F933F938F939F93AF93BF938091950156
:1007800090919601A0919701B091980130919401B8
:1007900023E0230F2D3720F40196A11DB11D05C0C4
:1007A00026E8230F0296A11DB11D2093940180938A
:1007B000950190939601A0939701B0939801809131
:1007C000990190919A01A0919B01B0919C01019691
:1007D000A11DB11D8093990190939A01A0939B0153
:1007E000B0939C01BF91AF919F918F913F912F91B9
:1007F0000F900FBE0F901F9018951F920F920FB67B
:100800000F9211242F933F934F935F936F937F9396
:100810008F939F93AF93BF93EF93FF93E0919F01CB
:10082000F091A001309709F451C0968DA685B78547
:10083000858591FF04C09C91892329F447C09C9130
:10084000892309F043C0A389B4899C918589809547
:1008500089238C93868997890197F1F7608D718D33
:10086000A685B785558538E020E0CB010197F1F7E3
:10087000822F90E095958795282F4C91452309F07C
:100880002068315091F7868D81FD209580919E01E1
:1008900090E001968F73992730919D01381749F0A8
:1008A000A0919E01B0E0AC5ABE4F2C9380939E0164
:1008B00003C0868D8160868F828D938D0197F1F7BD
:1008C000A389B4899C918589892B8C93FF91EF91A1
:1008D000BF91AF919F918F917F916F915F914F9158
:1008E0003F912F910F900FBE0F901F90189510926F
:1008F000AC011092AB0188EE93E0A0E0B0E08093F1
:10090000AD019093AE01A093AF01B093B0012CE084
:1009100031E03093AA012093A90125EC30E0309317
:10092000B6012093B50124EC30E03093B801209358
:10093000B70120EC30E03093BA012093B90121ECEB
:1009400030E03093BC012093BB0122EC30E03093C7
:10095000BE012093BD0126EC30E03093C00120930E
:10096000BF011092C2011092C3011092C4011092F3
:10097000C501109249021092480280934A02909356
:100980004B02A0934C02B0934D028CE191E0909306
:1009900047028093460210925D0210925C02109210
:1009A0005F0210925E021092610210926002109239
:1009B000630210926202609164026E7F6D7F6093A9
:1009C00064026695617081E068278BE00E94840173
:1009D00061E08BE00E94D001E9EBF0E0E491E0936C
:1009E0005602E5EAF0E0E491F0E0EE0FFF1FEA576F
:1009F000FF4F85919491909358028093570260E045
:100A00008AE00E94D0018091640281FD04C061E00F
:100A10008AE00E9484018AE080935202E8EBF0E0D1
:100A2000E491E0935302E4EAF0E0E491F0E0EE0FA9
:100A3000FF1FE057FF4F859194919093550280934B
:100A400054020895789484B5826084BD84B5816031
:100A500084BD85B5826085BD85B5816085BD809189
:100A60006E00816080936E00109281008091810001
:100A700082608093810080918100816080938100F9
:100A8000809180008160809380008091B1008460BB
:100A90008093B1008091B00081608093B00080911C
:100AA0007A00846080937A0080917A0082608093DB
:100AB0007A0080917A00816080937A0080917A0038
:100AC000806880937A001092C10061E089E00E9402
:100AD000D00160E089E00E948401E091B901F091C9
:100AE000BA0182E08083E091B501F091B6011082F5
:100AF000E091B701F091B8018FEC80831092C101B1
:100B0000E091BD01F091BE0186E08083E091BB01E0
:100B1000F091BC01808180618083E091BB01F09104
:100B2000BC01808188608083E091BB01F091BC01B1
:100B3000808180688083E091BB01F091BC0180815D
:100B40008F7D8083109261021092600210925F028A
:100B500010925E0210925D0210925C028DE991E0AB
:100B6000909363028093620290915202963108F052
:100B700057C02DEB30E030935D0220935C022BE9EF
:100B800031E030935F0220935E022CE231E030933B
:100B900061022093600220916800983050F031E0AB
:100BA0009E3008F430E081E001C0880F3A95EAF702
:100BB00001C084E0822B80936800983038F09E302A
:100BC00040F0963148F020E030E008C02DE630E0FB
:100BD00005C02BE630E002C02CE630E030935A022C
:100BE00020935902983030F481E001C0880F9A9523
:100BF000EAF70EC0292F30E09E3018F42850310952
:100C000002C02E50310981E001C0880F2A95EAF711
:100C100080935B0280916202909163020197F1F7E9
:100C20008091600290916102892B21F180919F0156
:100C30009091A00122E086349207E1F0009711F034
:100C40000E941103809164028E7F8093640210924F
:100C50009E0110929D0186E492E09093A001809302
:100C60009F01E0915902F0915A02908180915B02BC
:100C7000892B808361E082E00E94D00161E084E002
:100C80000E94D00161E083E00E94D00161E085E034
:100C90000E94D00186E492E00E94D80208970CF4EA
:100CA000B6C086E492E00E94D802892B09F4AFC056
:100CB0008091A3019091A4019093A2018093A1013E
:100CC0008091A5019091A6019093A4018093A30126
:100CD0008091A7019091A8019093A6018093A5010E
:100CE00086E492E00E94F0029C0120533109309387
:100CF000A8012093A70191E04091A1015091A20188
:100D00004930510509F090E04091A3015091A401B0
:100D10004530510509F090E04091A5015091A601A0
:100D20004630510509F090E02830310509F0B9CF7F
:100D3000992309F4B6CFC1EAD1E086E492E00E949B
:100D4000F0029C012053310929933993682F89EAD5
:100D500091E00E94110181E0C93AD80771F742E0A1
:100D600050E068E271E089EA91E00E948D008BE238
:100D700091E00E9437038091A1019091A201019717
:100D800009F08FCF8091A3019091A401009751F0B9
:100D9000019709F086CF82E491E00E94370300EDCD
:100DA00017E032C080E391E00E94370300ED17E0C6
:100DB000C0E0D1E08881229661E00E9484016AE06F
:100DC00070E080E090E00E9431020E94270321E061
:100DD000C830D20779F70150110951F762CF229735
:100DE00061E088810E9484016AE070E080E090E028
:100DF0000E9431020E94270381E0C030D80779F7B2
:100E00000150110909F44DCFC8E0D1E0E8CF0E94AC
:100E10007A0140CF8CE191E09093470280934602A3
:100E200086E492E00C94110397FB072E16F40094CD
:100E300007D077FD09D00E94280707FC05D03EF4B3
:100E4000909581959F4F0895709561957F4F089576
:100E5000AA1BBB1B51E107C0AA1FBB1FA617B707E0
:100E600010F0A61BB70B881F991F5A95A9F78095FC
:100E70009095BC01CD010895EE0FFF1F0590F491F0
:100E8000E02D099481E090E0F8940C94470710E07D
:100E9000C2E6D0E004C0FE010E943C072196C336A2
:080EA000D107C9F7F894FFCF58
:100EA80002000400030005000000000011018D008D
:100EB800DA00B800CC0058010000000084028D0060
:100EC800D802F0026B0283020D0A00736F6D650091
:100ED8006F70656E696E67206375727461696E7391
:100EE8002100636C6F73696E672063757274616942
:040EF8006E732100F4
:00000001FF
